:1000000010C01FC01EC01DC01CC01BC01BC019C01B
:1000100018C017C016C015C014C013C012C011C03C
:1000200010C011241FBECFE5D1E0DEBFCDBF20E060
:10003000A0E6B0E001C01D92A837B207E1F741D1B8
:10004000A0C1DECF1F920F920FB60F9211248F9393
:10005000809175008823F9F0809175008A3018F43A
:10006000823090F004C08A3079F4DD980EC080911F
:10007000760080FF02C0DD9A01C0DD988091760095
:1000800086958093760001C0DD9A8091750081503D
:100090008093750004C08EB58D7F8EBDDD9A8F91E3
:1000A0000F900FBE0F901F901895909175009111B1
:1000B000FCCF809376008AE0809375008EB58260D5
:1000C0008EBD0895CF93DF93EC018991882311F0C1
:1000D000ECDFFBCF8AE0E9DF8DE0DF91CF91E5CF68
:1000E0008EB588608EBD87E690E09BBD8ABD619A23
:1000F000DD98089513BE1CBE83E380BF08958CBFB6
:1001000084E083BF0895DE9ADC9AD49AD69A8FEF62
:100110008FB98AE28DB980EF8EB908958EB98BE2DE
:100120009DE09A95F1F700008DB9CC9BFECF9AE047
:100130009A95F1F700C08DB9769BF2CF8DE08A9544
:10014000F1F700008FB19FEF9FB9D69A0895DC9A1E
:10015000DC9BFECF8DE08A95F1F70000DE988AE007
:100160008A95F1F700C0DC98DE9A779B02C080E0A8
:10017000089583E00895DE98DC9ACC9BFECF8AE058
:100180008A95F1F700C0DE9A8DE08A95F1F70000BC
:10019000759B02C080E0089584E00895AF92BF92FD
:1001A000CF92DF92EF92FF920F931F93CF93DF9343
:1001B0008C01E62E80917700816080937700F801B2
:1001C000908190FD03C0826080937700C0DF811131
:1001D0004FC0FE2CE801BB24BA94AA24A3948091BA
:1001E000770083709E012F5F3F4F6901882321F1C3
:1001F000DC9888818FB980EF91DFD6988EEF8EDF03
:100200009091770080FF04C090FD31C082E030C043
:10021000892F8570843061F4F8018081816080834A
:10022000A092770094DF811123C0FE2CE80111C059
:100230009E7F909377000CC0D69880EF6FDF888305
:10024000F1E0FF1202C0BFB801C01FB88EEF66DF39
:10025000E601FA94F110C3CFDF91CF911F910F9176
:10026000FF90EF90DF90CF90BF90AF9084CF81E070
:10027000DF91CF911F910F91FF90EF90DF90CF9082
:10028000BF90AF900895FC0120812E7F208324E051
:100290002093770083CFFB01880F8083642FCF01E9
:1002A000F2CF109277007ACFFB01880F8083642F02
:1002B000CF01F7CFFB01880F81608083642FCF01CE
:1002C000F0CF80E890E00FB6F89486BD96BD0FBEE3
:1002D0008BBB8FEF8ABB17BA85E088BB0BDF00DFD3
:1002E00080E090E034D080936000809160008CBF0B
:1002F00084E083BF80916000803831F08E3F31F020
:10030000803421F460E803C06EEF01C060E480E057
:1003100090E025D07894C0E081E0D4E09091600036
:100320009CBFD3BF2FEF34E39CE02150304090407E
:10033000E1F700C00000CF5FCB3080F3813011F0D7
:1003400080E0ECCF60E480E090E009D0F9CFE19963
:10035000FECF1FBA8EBBE09A99278DB30895262F42
:10036000E199FECF1FBA8EBBE09A81500DB2021602
:1003700039F01CBA2DBB0FB6F894E29AE19A0FBE81
:060380000895F894FFCF80
:00000001FF
